:020000040000FA
:020000002C28AA
:040002000034003492
:080008000B118B13AA00033059
:10001000AB008519152805191B288518212885018D
:100020002208672086008515262885012308672079
:10003000860005152628850124086720860085147A
:10004000262885012508672086000514C630810012
:100050002B0883002A08090007309F00C630810062
:10006000831601308600F030850081128111011461
:10007000811401158B178B16831285018601A60149
:10008000A701A801A901051F43285D20051B4328DE
:100090004A204328A20A22080A3A031D5C28A2012A
:1000A000A30A23080A3A031D5C28A301A40A240812
:1000B0000A3A031D5C28A4010800FA30A00014309D
:1000C000A1000000A00B6128A10B64280800820792
:1000D0007F340D34B7349F34CD34DB34FB340F34EC
:0400E000FF34CF34E6
:02400E000100AF
:00000001FF
