:020000040000FA
:020000002C28AA
:040002000034003492
:080008000B118B13AA00033059
:10001000AB008518152805181B280519212885010E
:100020002208E92086008514262885012308E92076
:1000300086000514262885012408E9208600051578
:10004000262885012508E92086008515C63081000F
:100050002B0883002A08090007309F00C630810062
:10006000831601308600F030850081128111011461
:10007000811401158B178B1681138312850186015C
:10008000051B4920851B4E2006185320051AB12058
:100090004028DF20051B0800B6200800DF20851B54
:1000A0000800C9200800DF2006180800AD0A013A40
:1000B000031D5C2868280800AD0A2208AE0023084A
:1000C000AF002408B000A201A301A401A5015B2890
:1000D0002208B1002308B2002408B3006F283308B7
:1000E0003002031C8028031DA02832082F02031CA5
:1000F0008028031DA02831082E02031C8028A02878
:1001000030083308AC082F08B2082C082E08310834
:10011000AC08A0280314AF0303189228B0032F08DB
:100120000A3EAF000A30AE073108AE0208000314E1
:10013000B00303189B280A30AF073208AF0208004B
:1001400031082E02031C8A202E08A20032082F023A
:10015000031C97202F08A3003308B0023008A40026
:100160005B28A201A301A401A5010800A20A22089C
:100170000A3A031DC828A201A30A23080A3A031D4C
:10018000C828A301A40A24080A3A031DC828A40108
:100190000800A2032208FF3A031DDE280930A2004E
:1001A000A3032308FF3A031DDE280930A300A4039C
:1001B0002408FF3A031DDE280930A4000800FA30A5
:1001C000A0001430A1000000A00BE328A10BE6283A
:1001D000080082077F340D34B7349F34CD34DB34CC
:0801E000FB340F34FF34CF346F
:02400E000100AF
:00000001FF
