:020000040000FA
:020000002C28AA
:040002000034003492
:080008000B118B13AA00033059
:10001000AB008518152805181B280519212885010E
:1000200022084B20860085142628850123084B20B2
:10003000860005142628850124084B208600051516
:100040002628850125084B2086008515C6308100AD
:100050002B0883002A08090007309F00C630810062
:10006000831601308600F030850081128111011461
:10007000811401158B178B168312AD012E1085018B
:1000800086015820051B7B21851B88210618952198
:10009000051A0922422882077F340D34B7349F3471
:1000A000CD34DB34FB340F34FF34CF3481340134AE
:1000B0008312073083168B139B001C141C185E28B8
:1000C0009C131A0883128B17AD0003302D020318FE
:1000D000AD012D08003A031975282D08013A0319BE
:1000E000BA282D08023A0319FF288312003083161C
:1000F0008B139B001C141C187B289C131A0883125A
:100100008B17A2000C3022020318A20183120130C7
:1001100083168B139B001C141C188C289C131A0824
:1001200083128B17A3000C3023020318A301831240
:10013000023083168B139B001C141C189D289C13E3
:100140001A0883128B17A4000C3024020318A40190
:100150008312033083168B139B001C141C18AE28CB
:100160009C131A0883128B17A5000C302502031864
:10017000A50143298312083083168B139B001C149E
:100180001C18C0289C131A0883128B17A2000C306D
:1001900022020318A2018312093083168B139B00DD
:1001A0001C141C18D1289C131A0883128B17A30047
:1001B0000C3023020318A30183120A3083168B1319
:1001C0009B001C141C18E2289C131A0883128B171E
:1001D000A4000C3022020318A40183120B308316F2
:1001E0008B139B001C141C18F3289C131A088312F1
:1001F0008B17A5000C3025020318A5014329831293
:10020000103083168B139B001C141C1805299C139B
:100210001A0883128B17A2000C3022020318A201C5
:100220008312113083168B139B001C141C18162983
:100230009C131A0883128B17A3000C302302031897
:10024000A3018312123083168B139B001C141C18FD
:1002500027299C131A0883128B17A4000C30240240
:100260000318A4018312133083168B139B001C14F4
:100270001C1838299C131A0883128B17A5000C3000
:1002800025020318A50108002E1C47295F29240810
:10029000003A031D53292308003A031D562922085A
:1002A000003A031D5A290B30A50079290B30A40010
:1002B000A50079290B30A300A400A5007929240802
:1002C000003A031D6B292308003A031D6E292208FA
:1002D000003A031D73290A30A50079290A30A400C9
:1002E0000B30A50079290A30A3000B30A500A4002B
:1002F0007929B62208006D23051B080044232D0828
:10030000003A03191422013A031965220723080051
:100310006D23851B080057232D08003A031914226A
:10032000013A03196522072308006D230618080007
:100330002D08003A03199E29AC290800AD0A0723AD
:100340002208AF002308B0002408B1001422A20143
:10035000A301A401A5019D29AD0A07232208B2002B
:100360002308B3002408B40065221C23B7293408ED
:100370003102031CC821031DF62933083002031C77
:10038000C821031DF62932082F02031CC821F629B3
:100390003108AC003408B1002C08B4003008AC00BF
:1003A0003308B0002C08B3002F08AC003208AF00AF
:1003B0002C08B2002E140A30A500080003143003E4
:1003C0000318E7290314B10330080A3EB000B00354
:1003D0002F080A3EAF0032082F0208000314B103B1
:1003E00030080A3EB00033083002080032082F02FD
:1003F000031CDE21AF00A20033083002031CEE21F3
:10040000B000A30034083102B100A4004421B62298
:100410009D29A201A301A401A501AD010723142276
:100420006522B6222E1008008312003083169B002E
:100430008312220883169A001C158B1355309D00D9
:10044000AA309D009C149C18232A1C118B17831220
:100450008312013083169B008312230883169A00AF
:100460001C158B1355309D00AA309D009C149C18C0
:10047000372A1C118B1783128312023083169B00BC
:100480008312240883169A001C158B1355309D0087
:10049000AA309D009C149C184B2A1C118B178312A8
:1004A0008312033083169B008312250883169A005B
:1004B0001C158B1355309D00AA309D009C149C1870
:1004C0005F2A1C118B1783120800831208308316D1
:1004D0009B008312220883169A001C158B1355303B
:1004E0009D00AA309D009C149C18742A1C118B1727
:1004F00083128312093083169B008312230883160C
:100500009A001C158B1355309D00AA309D009C1439
:100510009C18882A1C118B17831283120A308316A9
:100520009B008312240883169A001C158B135530E8
:100530009D00AA309D009C149C189C2A1C118B17AE
:10054000831283120B3083169B00831225088316B7
:100550009A001C158B1355309D00AA309D009C14E9
:100560009C18B02A1C118B178312080083121030BC
:1005700083169B008312220883169A001C158B1386
:1005800055309D00AA309D009C149C18C52A1C1152
:100590008B1783128312113083169B00831223085A
:1005A00083169A001C158B1355309D00AA309D00B0
:1005B0009C149C18D92A1C118B1783128312123099
:1005C00083169B008312240883169A001C158B1334
:1005D00055309D00AA309D009C149C18ED2A1C11DA
:1005E0008B1783128312133083169B008312250806
:1005F00083169A001C158B1355309D00AA309D0060
:100600009C149C18012B1C118B1783120800831259
:10061000073083169B0083122D0883169A001C1541
:100620008B1355309D00AA309D009C149C18162BEE
:100630001C118B17831208008312003083168B1352
:100640009B001C141C18222B9C131A0883128B1756
:10065000AF008312013083168B139B001C141C18EF
:100660002F2B9C131A0883128B17B00083120230B1
:1006700083168B139B001C141C183C2B9C131A080C
:1006800083128B17B1000800A20A22080A3A031D40
:10069000562BA201A30A23080A3A031D562BA301D5
:1006A000A40A24080A3A031D562BA4010800A20339
:1006B0002208FF3A031D6C2B0930A200A303230874
:1006C000FF3A031D6C2B0930A300A4032408FF3A52
:1006D000031D6C2B0930A4000800FA30A000143070
:0E06E000A1000000A00B712BA10B742B0800D1
:02400E000100AF
:00000001FF
